{
  "contractName": "DEVNETCoin",
  "abi": [
    {
      "constant": true,
      "inputs": [],
      "name": "name",
      "outputs": [
        {
          "name": "",
          "type": "string"
        }
      ],
      "payable": false,
      "stateMutability": "view",
      "type": "function"
    },
    {
      "constant": false,
      "inputs": [
        {
          "name": "spender",
          "type": "address"
        },
        {
          "name": "tokens",
          "type": "uint256"
        }
      ],
      "name": "approve",
      "outputs": [
        {
          "name": "success",
          "type": "bool"
        }
      ],
      "payable": false,
      "stateMutability": "nonpayable",
      "type": "function"
    },
    {
      "constant": true,
      "inputs": [],
      "name": "totalSupply",
      "outputs": [
        {
          "name": "",
          "type": "uint256"
        }
      ],
      "payable": false,
      "stateMutability": "view",
      "type": "function"
    },
    {
      "constant": false,
      "inputs": [
        {
          "name": "from",
          "type": "address"
        },
        {
          "name": "to",
          "type": "address"
        },
        {
          "name": "tokens",
          "type": "uint256"
        }
      ],
      "name": "transferFrom",
      "outputs": [
        {
          "name": "success",
          "type": "bool"
        }
      ],
      "payable": false,
      "stateMutability": "nonpayable",
      "type": "function"
    },
    {
      "constant": true,
      "inputs": [],
      "name": "decimals",
      "outputs": [
        {
          "name": "",
          "type": "uint8"
        }
      ],
      "payable": false,
      "stateMutability": "view",
      "type": "function"
    },
    {
      "constant": true,
      "inputs": [],
      "name": "val",
      "outputs": [
        {
          "name": "",
          "type": "address"
        }
      ],
      "payable": false,
      "stateMutability": "view",
      "type": "function"
    },
    {
      "constant": false,
      "inputs": [],
      "name": "withdraw",
      "outputs": [],
      "payable": false,
      "stateMutability": "nonpayable",
      "type": "function"
    },
    {
      "constant": true,
      "inputs": [],
      "name": "_totalSupply",
      "outputs": [
        {
          "name": "",
          "type": "uint256"
        }
      ],
      "payable": false,
      "stateMutability": "view",
      "type": "function"
    },
    {
      "constant": false,
      "inputs": [],
      "name": "kill",
      "outputs": [],
      "payable": false,
      "stateMutability": "nonpayable",
      "type": "function"
    },
    {
      "constant": false,
      "inputs": [],
      "name": "buyVXT",
      "outputs": [],
      "payable": true,
      "stateMutability": "payable",
      "type": "function"
    },
    {
      "constant": true,
      "inputs": [
        {
          "name": "tokenOwner",
          "type": "address"
        }
      ],
      "name": "balanceOf",
      "outputs": [
        {
          "name": "balance",
          "type": "uint256"
        }
      ],
      "payable": false,
      "stateMutability": "view",
      "type": "function"
    },
    {
      "constant": true,
      "inputs": [],
      "name": "symbol",
      "outputs": [
        {
          "name": "",
          "type": "string"
        }
      ],
      "payable": false,
      "stateMutability": "view",
      "type": "function"
    },
    {
      "constant": false,
      "inputs": [
        {
          "name": "to",
          "type": "address"
        },
        {
          "name": "tokens",
          "type": "uint256"
        }
      ],
      "name": "transfer",
      "outputs": [
        {
          "name": "success",
          "type": "bool"
        }
      ],
      "payable": false,
      "stateMutability": "nonpayable",
      "type": "function"
    },
    {
      "constant": false,
      "inputs": [
        {
          "name": "spender",
          "type": "address"
        },
        {
          "name": "tokens",
          "type": "uint256"
        },
        {
          "name": "data",
          "type": "bytes"
        }
      ],
      "name": "approveAndCall",
      "outputs": [
        {
          "name": "success",
          "type": "bool"
        }
      ],
      "payable": false,
      "stateMutability": "nonpayable",
      "type": "function"
    },
    {
      "constant": true,
      "inputs": [],
      "name": "tom",
      "outputs": [
        {
          "name": "",
          "type": "address"
        }
      ],
      "payable": false,
      "stateMutability": "view",
      "type": "function"
    },
    {
      "constant": true,
      "inputs": [
        {
          "name": "tokenOwner",
          "type": "address"
        },
        {
          "name": "spender",
          "type": "address"
        }
      ],
      "name": "allowance",
      "outputs": [
        {
          "name": "remaining",
          "type": "uint256"
        }
      ],
      "payable": false,
      "stateMutability": "view",
      "type": "function"
    },
    {
      "constant": true,
      "inputs": [],
      "name": "getAccountQuantity",
      "outputs": [
        {
          "name": "count",
          "type": "uint256"
        }
      ],
      "payable": false,
      "stateMutability": "view",
      "type": "function"
    },
    {
      "inputs": [
        {
          "name": "_val",
          "type": "address"
        },
        {
          "name": "_tom",
          "type": "address"
        }
      ],
      "payable": false,
      "stateMutability": "nonpayable",
      "type": "constructor"
    },
    {
      "payable": true,
      "stateMutability": "payable",
      "type": "fallback"
    },
    {
      "anonymous": false,
      "inputs": [
        {
          "indexed": true,
          "name": "from",
          "type": "address"
        },
        {
          "indexed": true,
          "name": "to",
          "type": "address"
        },
        {
          "indexed": false,
          "name": "tokens",
          "type": "uint256"
        }
      ],
      "name": "Transfer",
      "type": "event"
    },
    {
      "anonymous": false,
      "inputs": [
        {
          "indexed": true,
          "name": "tokenOwner",
          "type": "address"
        },
        {
          "indexed": true,
          "name": "spender",
          "type": "address"
        },
        {
          "indexed": false,
          "name": "tokens",
          "type": "uint256"
        }
      ],
      "name": "Approval",
      "type": "event"
    }
  ],
  "bytecode": "0x606060405234156200001057600080fd5b60405160408062001b93833981016040528080519060200190919080519060200190919050506000600460006101000a81548161ffff021916908361ffff1602179055506040805190810160405280600b81526020017f4445564e45547c436f696e00000000000000000000000000000000000000000081525060009080519060200190620000a1929190620004de565b506040805190810160405280600481526020017f565854360000000000000000000000000000000000000000000000000000000081525060019080519060200190620000ef929190620004de565b506012600260006101000a81548160ff021916908360ff160217905550600260009054906101000a900460ff1660ff16600a0a6301312d000260038190555081600960006101000a81548173ffffffffffffffffffffffffffffffffffffffff021916908373ffffffffffffffffffffffffffffffffffffffff16021790555080600a60006101000a81548173ffffffffffffffffffffffffffffffffffffffff021916908373ffffffffffffffffffffffffffffffffffffffff1602179055506004600354811515620001bf57fe5b0460066000600960009054906101000a900473ffffffffffffffffffffffffffffffffffffffff1673ffffffffffffffffffffffffffffffffffffffff1673ffffffffffffffffffffffffffffffffffffffff1681526020019081526020016000208190555060046003548115156200023457fe5b0460066000600a60009054906101000a900473ffffffffffffffffffffffffffffffffffffffff1673ffffffffffffffffffffffffffffffffffffffff1673ffffffffffffffffffffffffffffffffffffffff1681526020019081526020016000208190555060058054806001018281620002b0919062000565565b91600052602060002090016000600960009054906101000a900473ffffffffffffffffffffffffffffffffffffffff16909190916101000a81548173ffffffffffffffffffffffffffffffffffffffff021916908373ffffffffffffffffffffffffffffffffffffffff160217905550506005805480600101828162000337919062000565565b91600052602060002090016000600a60009054906101000a900473ffffffffffffffffffffffffffffffffffffffff16909190916101000a81548173ffffffffffffffffffffffffffffffffffffffff021916908373ffffffffffffffffffffffffffffffffffffffff16021790555050600960009054906101000a900473ffffffffffffffffffffffffffffffffffffffff1673ffffffffffffffffffffffffffffffffffffffff16600073ffffffffffffffffffffffffffffffffffffffff167fddf252ad1be2c89b69c2b068fc378daa952ba7f163c4a11628f55a4df523b3ef60046003548115156200042957fe5b046040518082815260200191505060405180910390a3600a60009054906101000a900473ffffffffffffffffffffffffffffffffffffffff1673ffffffffffffffffffffffffffffffffffffffff16600073ffffffffffffffffffffffffffffffffffffffff167fddf252ad1be2c89b69c2b068fc378daa952ba7f163c4a11628f55a4df523b3ef6004600354811515620004c057fe5b046040518082815260200191505060405180910390a35050620005bc565b828054600181600116156101000203166002900490600052602060002090601f016020900481019282601f106200052157805160ff191683800117855562000552565b8280016001018555821562000552579182015b828111156200055157825182559160200191906001019062000534565b5b50905062000561919062000594565b5090565b8154818355818115116200058f578183600052602060002091820191016200058e919062000594565b5b505050565b620005b991905b80821115620005b55760008160009055506001016200059b565b5090565b90565b6115c780620005cc6000396000f3006060604052600436106100f1576000357c0100000000000000000000000000000000000000000000000000000000900463ffffffff16806306fdde03146100fb578063095ea7b31461018957806318160ddd146101e357806323b872dd1461020c578063313ce567146102855780633c6bb436146102b45780633ccfd60b146103095780633eaaf86b1461031e57806341c0e1b5146103475780634727189d1461035c57806370a082311461036657806395d89b41146103b3578063a9059cbb14610441578063cae9ca511461049b578063ce266af814610538578063dd62ed3e1461058d578063e8ed1cdd146105f9575b6100f9610622565b005b341561010657600080fd5b61010e6108fd565b6040518080602001828103825283818151815260200191508051906020019080838360005b8381101561014e578082015181840152602081019050610133565b50505050905090810190601f16801561017b5780820380516001836020036101000a031916815260200191505b509250505060405180910390f35b341561019457600080fd5b6101c9600480803573ffffffffffffffffffffffffffffffffffffffff1690602001909190803590602001909190505061099b565b604051808215151515815260200191505060405180910390f35b34156101ee57600080fd5b6101f6610a8d565b6040518082815260200191505060405180910390f35b341561021757600080fd5b61026b600480803573ffffffffffffffffffffffffffffffffffffffff1690602001909190803573ffffffffffffffffffffffffffffffffffffffff16906020019091908035906020019091905050610ad8565b604051808215151515815260200191505060405180910390f35b341561029057600080fd5b610298610d83565b604051808260ff1660ff16815260200191505060405180910390f35b34156102bf57600080fd5b6102c7610d96565b604051808273ffffffffffffffffffffffffffffffffffffffff1673ffffffffffffffffffffffffffffffffffffffff16815260200191505060405180910390f35b341561031457600080fd5b61031c610dbc565b005b341561032957600080fd5b610331610e88565b6040518082815260200191505060405180910390f35b341561035257600080fd5b61035a610e8e565b005b610364610622565b005b341561037157600080fd5b61039d600480803573ffffffffffffffffffffffffffffffffffffffff16906020019091905050610f7d565b6040518082815260200191505060405180910390f35b34156103be57600080fd5b6103c6610fc6565b6040518080602001828103825283818151815260200191508051906020019080838360005b838110156104065780820151818401526020810190506103eb565b50505050905090810190601f1680156104335780820380516001836020036101000a031916815260200191505b509250505060405180910390f35b341561044c57600080fd5b610481600480803573ffffffffffffffffffffffffffffffffffffffff16906020019091908035906020019091905050611064565b604051808215151515815260200191505060405180910390f35b34156104a657600080fd5b61051e600480803573ffffffffffffffffffffffffffffffffffffffff1690602001909190803590602001909190803590602001908201803590602001908080601f016020809104026020016040519081016040528093929190818152602001838380828437820191505050505050919050506111ff565b604051808215151515815260200191505060405180910390f35b341561054357600080fd5b61054b611449565b604051808273ffffffffffffffffffffffffffffffffffffffff1673ffffffffffffffffffffffffffffffffffffffff16815260200191505060405180910390f35b341561059857600080fd5b6105e3600480803573ffffffffffffffffffffffffffffffffffffffff1690602001909190803573ffffffffffffffffffffffffffffffffffffffff1690602001909190505061146f565b6040518082815260200191505060405180910390f35b341561060457600080fd5b61060c6114f6565b6040518082815260200191505060405180910390f35b6000806000600354925060009150600060035411151561064157600080fd5b3490506064810283101515610660576064810291508083039250610668565b829150600092505b6000600660003373ffffffffffffffffffffffffffffffffffffffff1673ffffffffffffffffffffffffffffffffffffffff16815260200190815260200160002054141561074957600580548060010182816106c4919061154a565b9160005260206000209001600033909190916101000a81548173ffffffffffffffffffffffffffffffffffffffff021916908373ffffffffffffffffffffffffffffffffffffffff160217905550506004600081819054906101000a900461ffff168092919060010191906101000a81548161ffff021916908361ffff160217905550505b61079b82600660003373ffffffffffffffffffffffffffffffffffffffff1673ffffffffffffffffffffffffffffffffffffffff1681526020019081526020016000205461151290919063ffffffff16565b503373ffffffffffffffffffffffffffffffffffffffff16600073ffffffffffffffffffffffffffffffffffffffff167fddf252ad1be2c89b69c2b068fc378daa952ba7f163c4a11628f55a4df523b3ef846040518082815260200191505060405180910390a360023481151561080e57fe5b0460086000600960009054906101000a900473ffffffffffffffffffffffffffffffffffffffff1673ffffffffffffffffffffffffffffffffffffffff1673ffffffffffffffffffffffffffffffffffffffff1681526020019081526020016000206000828254019250508190555060023481151561088957fe5b0460086000600a60009054906101000a900473ffffffffffffffffffffffffffffffffffffffff1673ffffffffffffffffffffffffffffffffffffffff1673ffffffffffffffffffffffffffffffffffffffff16815260200190815260200160002060008282540192505081905550505050565b60008054600181600116156101000203166002900480601f0160208091040260200160405190810160405280929190818152602001828054600181600116156101000203166002900480156109935780601f1061096857610100808354040283529160200191610993565b820191906000526020600020905b81548152906001019060200180831161097657829003601f168201915b505050505081565b600081600760003373ffffffffffffffffffffffffffffffffffffffff1673ffffffffffffffffffffffffffffffffffffffff16815260200190815260200160002060008573ffffffffffffffffffffffffffffffffffffffff1673ffffffffffffffffffffffffffffffffffffffff168152602001908152602001600020819055508273ffffffffffffffffffffffffffffffffffffffff163373ffffffffffffffffffffffffffffffffffffffff167f8c5be1e5ebec7d5bd14f71427d1e84f3dd0314c0f7b2291e5b200ac8c7c3b925846040518082815260200191505060405180910390a36001905092915050565b6000600660008073ffffffffffffffffffffffffffffffffffffffff1673ffffffffffffffffffffffffffffffffffffffff1681526020019081526020016000205460035403905090565b6000610b2c82600660008773ffffffffffffffffffffffffffffffffffffffff1673ffffffffffffffffffffffffffffffffffffffff1681526020019081526020016000205461152e90919063ffffffff16565b600660008673ffffffffffffffffffffffffffffffffffffffff1673ffffffffffffffffffffffffffffffffffffffff16815260200190815260200160002081905550610bfe82600760008773ffffffffffffffffffffffffffffffffffffffff1673ffffffffffffffffffffffffffffffffffffffff16815260200190815260200160002060003373ffffffffffffffffffffffffffffffffffffffff1673ffffffffffffffffffffffffffffffffffffffff1681526020019081526020016000205461152e90919063ffffffff16565b600760008673ffffffffffffffffffffffffffffffffffffffff1673ffffffffffffffffffffffffffffffffffffffff16815260200190815260200160002060003373ffffffffffffffffffffffffffffffffffffffff1673ffffffffffffffffffffffffffffffffffffffff16815260200190815260200160002081905550610cd082600660008673ffffffffffffffffffffffffffffffffffffffff1673ffffffffffffffffffffffffffffffffffffffff1681526020019081526020016000205461151290919063ffffffff16565b600660008573ffffffffffffffffffffffffffffffffffffffff1673ffffffffffffffffffffffffffffffffffffffff168152602001908152602001600020819055508273ffffffffffffffffffffffffffffffffffffffff168473ffffffffffffffffffffffffffffffffffffffff167fddf252ad1be2c89b69c2b068fc378daa952ba7f163c4a11628f55a4df523b3ef846040518082815260200191505060405180910390a3600190509392505050565b600260009054906101000a900460ff1681565b600960009054906101000a900473ffffffffffffffffffffffffffffffffffffffff1681565b6000600860003373ffffffffffffffffffffffffffffffffffffffff1673ffffffffffffffffffffffffffffffffffffffff1681526020019081526020016000205490506000600860003373ffffffffffffffffffffffffffffffffffffffff1673ffffffffffffffffffffffffffffffffffffffff168152602001908152602001600020819055503373ffffffffffffffffffffffffffffffffffffffff166108fc829081150290604051600060405180830381858888f193505050501515610e8557600080fd5b50565b60035481565b600960009054906101000a900473ffffffffffffffffffffffffffffffffffffffff1673ffffffffffffffffffffffffffffffffffffffff163373ffffffffffffffffffffffffffffffffffffffff161480610f375750600a60009054906101000a900473ffffffffffffffffffffffffffffffffffffffff1673ffffffffffffffffffffffffffffffffffffffff163373ffffffffffffffffffffffffffffffffffffffff16145b1515610f4257600080fd5b600960009054906101000a900473ffffffffffffffffffffffffffffffffffffffff1673ffffffffffffffffffffffffffffffffffffffff16ff5b6000600660008373ffffffffffffffffffffffffffffffffffffffff1673ffffffffffffffffffffffffffffffffffffffff168152602001908152602001600020549050919050565b60018054600181600116156101000203166002900480601f01602080910402602001604051908101604052809291908181526020018280546001816001161561010002031660029004801561105c5780601f106110315761010080835404028352916020019161105c565b820191906000526020600020905b81548152906001019060200180831161103f57829003601f168201915b505050505081565b60006110b882600660003373ffffffffffffffffffffffffffffffffffffffff1673ffffffffffffffffffffffffffffffffffffffff1681526020019081526020016000205461152e90919063ffffffff16565b600660003373ffffffffffffffffffffffffffffffffffffffff1673ffffffffffffffffffffffffffffffffffffffff1681526020019081526020016000208190555061114d82600660008673ffffffffffffffffffffffffffffffffffffffff1673ffffffffffffffffffffffffffffffffffffffff1681526020019081526020016000205461151290919063ffffffff16565b600660008573ffffffffffffffffffffffffffffffffffffffff1673ffffffffffffffffffffffffffffffffffffffff168152602001908152602001600020819055508273ffffffffffffffffffffffffffffffffffffffff163373ffffffffffffffffffffffffffffffffffffffff167fddf252ad1be2c89b69c2b068fc378daa952ba7f163c4a11628f55a4df523b3ef846040518082815260200191505060405180910390a36001905092915050565b600082600760003373ffffffffffffffffffffffffffffffffffffffff1673ffffffffffffffffffffffffffffffffffffffff16815260200190815260200160002060008673ffffffffffffffffffffffffffffffffffffffff1673ffffffffffffffffffffffffffffffffffffffff168152602001908152602001600020819055508373ffffffffffffffffffffffffffffffffffffffff163373ffffffffffffffffffffffffffffffffffffffff167f8c5be1e5ebec7d5bd14f71427d1e84f3dd0314c0f7b2291e5b200ac8c7c3b925856040518082815260200191505060405180910390a38373ffffffffffffffffffffffffffffffffffffffff16638f4ffcb1338530866040518563ffffffff167c0100000000000000000000000000000000000000000000000000000000028152600401808573ffffffffffffffffffffffffffffffffffffffff1673ffffffffffffffffffffffffffffffffffffffff1681526020018481526020018373ffffffffffffffffffffffffffffffffffffffff1673ffffffffffffffffffffffffffffffffffffffff16815260200180602001828103825283818151815260200191508051906020019080838360005b838110156113dc5780820151818401526020810190506113c1565b50505050905090810190601f1680156114095780820380516001836020036101000a031916815260200191505b5095505050505050600060405180830381600087803b151561142a57600080fd5b6102c65a03f1151561143b57600080fd5b505050600190509392505050565b600a60009054906101000a900473ffffffffffffffffffffffffffffffffffffffff1681565b6000600760008473ffffffffffffffffffffffffffffffffffffffff1673ffffffffffffffffffffffffffffffffffffffff16815260200190815260200160002060008373ffffffffffffffffffffffffffffffffffffffff1673ffffffffffffffffffffffffffffffffffffffff16815260200190815260200160002054905092915050565b6000600460009054906101000a900461ffff1661ffff16905090565b6000818301905082811015151561152857600080fd5b92915050565b600082821115151561153f57600080fd5b818303905092915050565b815481835581811511611571578183600052602060002091820191016115709190611576565b5b505050565b61159891905b8082111561159457600081600090555060010161157c565b5090565b905600a165627a7a723058208ed1e0560a71d5a86017e86ce91bf9c67901e423045b830ef0d12741194cf8d20029",
  "source": "pragma solidity ^0.4.18;\n\n// Code borrowed and modified from https://theethereum.wiki/w/index.php/ERC20_Token_Standard\n// Use is just an example for Cisco Live DEVNET class and is provided as is. \n\nlibrary SafeMath {\n\n    function add(uint a, uint b) internal pure returns (uint c) {\n        c = a + b;\n        require(c >= a);\n    }\n\n    function sub(uint a, uint b) internal pure returns (uint c) {\n        require(b <= a);\n        c = a - b;\n    }\n\n    function mul(uint a, uint b) internal pure returns (uint c) {\n        c = a * b;\n        require(a == 0 || c / a == b);\n    }\n\n    function div(uint a, uint b) internal pure returns (uint c) {\n        require(b > 0);\n        c = a / b;\n    }\n}\n\n\n// ----------------------------------------------------------------------------\n\n// ERC Token Standard #20 Interface\n\n// https://github.com/ethereum/EIPs/blob/master/EIPS/eip-20-token-standard.md\n\n// ----------------------------------------------------------------------------\n\ncontract ERC20Interface {\n    function totalSupply() public constant returns (uint);\n    function balanceOf(address tokenOwner) public constant returns (uint balance);\n    function allowance(address tokenOwner, address spender) public constant returns (uint remaining);\n    function transfer(address to, uint tokens) public returns (bool success);\n    function approve(address spender, uint tokens) public returns (bool success);\n    function transferFrom(address from, address to, uint tokens) public returns (bool success);\n\n    event Transfer(address indexed from, address indexed to, uint tokens);\n    event Approval(address indexed tokenOwner, address indexed spender, uint tokens);\n\n}\n\ncontract ApproveAndCallFallBack {\n    function receiveApproval(address from, uint256 tokens, address token, bytes data) public;\n}\n\n\ncontract DEVNETCoin is ERC20Interface {\n    // add some function to uint to make it safe. \n    using SafeMath for uint;\n    // information about the coin.\n    string public name;\n    string public symbol;\n    uint8 public decimals;\n    uint public _totalSupply;\n    // people that own our coin.\n    uint16 userCount;\n    address[] accounts;\n    mapping(address => uint256) balances;\n    // mapping of who can withdraw from who.\n    mapping(address => mapping(address => uint)) allowed;\n    mapping(address => uint) pendingWithdrawals;\n    address public val;\n    address public tom;\n\n    // Constructor when contract is created. \n    function DEVNETCoin(address _val, address _tom) public {\n      userCount = 0;\n      name = \"DEVNET|Coin\";\n      symbol = \"VXT6\";\n      decimals = 18;\n      _totalSupply = 20000000 * 10**uint(decimals);\n      val = _val;\n      tom = _tom;\n      balances[val] = _totalSupply / 4;\n      balances[tom] = _totalSupply / 4;\n      accounts.push(val);\n      accounts.push(tom);\n      \n      Transfer(address(0), val, _totalSupply / 4);\n      Transfer(address(0), tom, _totalSupply / 4);\n      // 10,500,000,000,000\n    }\n\n    // get item count\n    function getAccountQuantity() public constant returns (uint count) {\n      return userCount;\n    }\n\n    // get the total supply \n    function totalSupply() public constant returns (uint) {\n      return _totalSupply - balances[address(0)];\n    }\n\n    // get the token balance for a token owner.\n    function balanceOf(address tokenOwner) public constant returns (uint balance) {\n      return balances[tokenOwner];\n    }\n\n    // send tokens from one account to another address. \n    function transfer(address to, uint tokens) public returns (bool success) {\n      // notice we use the safemath here \n      //tokens = tokens;\n      balances[msg.sender] = balances[msg.sender].sub(tokens);\n      balances[to] = balances[to].add(tokens);\n      Transfer(msg.sender, to, tokens);\n      return true;\n    }\n\n    // approve someone to be able to transfer tokens from your account. \n    function approve(address spender, uint tokens) public returns (bool success) {\n      allowed[msg.sender][spender] = tokens;\n      Approval(msg.sender, spender, tokens); \n      return true;\n    }\n   \n    // called by the person claiming the tokens.   \n    function transferFrom(address from, address to, uint tokens) public returns (bool success) {\n      balances[from] = balances[from].sub(tokens);\n      allowed[from][msg.sender] = allowed[from][msg.sender].sub(tokens);\n      balances[to] = balances[to].add(tokens);\n      Transfer(from, to, tokens);\n      return true;\n    }\n\n    // returns the amount of tokens approved by the owners that can be transferred to \n    // the spender's account. \n    function allowance(address tokenOwner, address spender) public constant returns (uint remaining) {\n      return allowed[tokenOwner][spender];\n    }\n \n    function approveAndCall(address spender, uint tokens, bytes data) public returns (bool success) {\n      allowed[msg.sender][spender] = tokens;\n      Approval(msg.sender, spender, tokens);\n      ApproveAndCallFallBack(spender).receiveApproval(msg.sender, tokens, this, data);\n      return true;\n    } \n\n   \n    function buyVXT() public payable {\n\n        uint tokensRemaining = _totalSupply;\n        uint tokensBought = 0;\n        require(_totalSupply > 0);\n        uint etherReceived = msg.value; \n        \n        if (tokensRemaining >= etherReceived * 100) {\n          tokensBought = etherReceived * 100;\n          tokensRemaining -= etherReceived;\n        } else {\n          tokensBought = tokensRemaining;\n          tokensRemaining = 0;\n        }\n        // make sure sender doesnt already exist.  If they don't, add new.  \n\n        if (balances[msg.sender] == 0) {\n          accounts.push(msg.sender);\n          userCount++;\n        }\n        \n        balances[msg.sender].add(tokensBought);\n  \n      \n        Transfer(address(0), msg.sender, tokensBought);\n\n        pendingWithdrawals[val] += msg.value / 2;\n        pendingWithdrawals[tom] += msg.value / 2;\n    } \n\n    // if people want to buy eth then we will send them tokens. \n    function () public payable {\n      buyVXT();\n    }\n\n    // give all them money to val or tom\n    function withdraw() public {\n      uint amount  = pendingWithdrawals[msg.sender];\n      pendingWithdrawals[msg.sender] = 0;\n      msg.sender.transfer(amount);\n    }\n\n    modifier valTomOnly() {\n      require(msg.sender == val || msg.sender == tom);\n      _;\n    }\n    \n    function kill() public valTomOnly {\n      selfdestruct(val);\n    }\n}\n\n",
  "sourcePath": "/Users/vallard/Code/DEVNET-Coin/contracts/devnetcoin.sol",
  "compiler": {
    "name": "solc",
    "version": "0.4.18+commit.9cf6e910.Emscripten.clang"
  },
  "schemaVersion": "1.0.1",
  "updatedAt": "2018-01-31T21:44:17.336Z"
}