{
  "contractName": "DEVNETCoin",
  "abi": [
    {
      "constant": true,
      "inputs": [],
      "name": "name",
      "outputs": [
        {
          "name": "",
          "type": "string"
        }
      ],
      "payable": false,
      "stateMutability": "view",
      "type": "function"
    },
    {
      "constant": false,
      "inputs": [
        {
          "name": "spender",
          "type": "address"
        },
        {
          "name": "tokens",
          "type": "uint256"
        }
      ],
      "name": "approve",
      "outputs": [
        {
          "name": "success",
          "type": "bool"
        }
      ],
      "payable": false,
      "stateMutability": "nonpayable",
      "type": "function"
    },
    {
      "constant": true,
      "inputs": [],
      "name": "totalSupply",
      "outputs": [
        {
          "name": "",
          "type": "uint256"
        }
      ],
      "payable": false,
      "stateMutability": "view",
      "type": "function"
    },
    {
      "constant": false,
      "inputs": [
        {
          "name": "from",
          "type": "address"
        },
        {
          "name": "to",
          "type": "address"
        },
        {
          "name": "tokens",
          "type": "uint256"
        }
      ],
      "name": "transferFrom",
      "outputs": [
        {
          "name": "success",
          "type": "bool"
        }
      ],
      "payable": false,
      "stateMutability": "nonpayable",
      "type": "function"
    },
    {
      "constant": true,
      "inputs": [],
      "name": "decimals",
      "outputs": [
        {
          "name": "",
          "type": "uint8"
        }
      ],
      "payable": false,
      "stateMutability": "view",
      "type": "function"
    },
    {
      "constant": true,
      "inputs": [],
      "name": "val",
      "outputs": [
        {
          "name": "",
          "type": "address"
        }
      ],
      "payable": false,
      "stateMutability": "view",
      "type": "function"
    },
    {
      "constant": false,
      "inputs": [],
      "name": "withdraw",
      "outputs": [],
      "payable": false,
      "stateMutability": "nonpayable",
      "type": "function"
    },
    {
      "constant": true,
      "inputs": [],
      "name": "_totalSupply",
      "outputs": [
        {
          "name": "",
          "type": "uint256"
        }
      ],
      "payable": false,
      "stateMutability": "view",
      "type": "function"
    },
    {
      "constant": false,
      "inputs": [],
      "name": "kill",
      "outputs": [],
      "payable": false,
      "stateMutability": "nonpayable",
      "type": "function"
    },
    {
      "constant": false,
      "inputs": [],
      "name": "buyVXT",
      "outputs": [],
      "payable": true,
      "stateMutability": "payable",
      "type": "function"
    },
    {
      "constant": true,
      "inputs": [
        {
          "name": "tokenOwner",
          "type": "address"
        }
      ],
      "name": "balanceOf",
      "outputs": [
        {
          "name": "balance",
          "type": "uint256"
        }
      ],
      "payable": false,
      "stateMutability": "view",
      "type": "function"
    },
    {
      "constant": true,
      "inputs": [],
      "name": "symbol",
      "outputs": [
        {
          "name": "",
          "type": "string"
        }
      ],
      "payable": false,
      "stateMutability": "view",
      "type": "function"
    },
    {
      "constant": false,
      "inputs": [
        {
          "name": "to",
          "type": "address"
        },
        {
          "name": "tokens",
          "type": "uint256"
        }
      ],
      "name": "transfer",
      "outputs": [
        {
          "name": "success",
          "type": "bool"
        }
      ],
      "payable": false,
      "stateMutability": "nonpayable",
      "type": "function"
    },
    {
      "constant": false,
      "inputs": [
        {
          "name": "spender",
          "type": "address"
        },
        {
          "name": "tokens",
          "type": "uint256"
        },
        {
          "name": "data",
          "type": "bytes"
        }
      ],
      "name": "approveAndCall",
      "outputs": [
        {
          "name": "success",
          "type": "bool"
        }
      ],
      "payable": false,
      "stateMutability": "nonpayable",
      "type": "function"
    },
    {
      "constant": true,
      "inputs": [],
      "name": "tom",
      "outputs": [
        {
          "name": "",
          "type": "address"
        }
      ],
      "payable": false,
      "stateMutability": "view",
      "type": "function"
    },
    {
      "constant": true,
      "inputs": [
        {
          "name": "tokenOwner",
          "type": "address"
        },
        {
          "name": "spender",
          "type": "address"
        }
      ],
      "name": "allowance",
      "outputs": [
        {
          "name": "remaining",
          "type": "uint256"
        }
      ],
      "payable": false,
      "stateMutability": "view",
      "type": "function"
    },
    {
      "inputs": [
        {
          "name": "_val",
          "type": "address"
        },
        {
          "name": "_tom",
          "type": "address"
        }
      ],
      "payable": false,
      "stateMutability": "nonpayable",
      "type": "constructor"
    },
    {
      "payable": true,
      "stateMutability": "payable",
      "type": "fallback"
    },
    {
      "anonymous": false,
      "inputs": [
        {
          "indexed": true,
          "name": "from",
          "type": "address"
        },
        {
          "indexed": true,
          "name": "to",
          "type": "address"
        },
        {
          "indexed": false,
          "name": "tokens",
          "type": "uint256"
        }
      ],
      "name": "Transfer",
      "type": "event"
    },
    {
      "anonymous": false,
      "inputs": [
        {
          "indexed": true,
          "name": "tokenOwner",
          "type": "address"
        },
        {
          "indexed": true,
          "name": "spender",
          "type": "address"
        },
        {
          "indexed": false,
          "name": "tokens",
          "type": "uint256"
        }
      ],
      "name": "Approval",
      "type": "event"
    }
  ],
  "bytecode": "0x606060405234156200001057600080fd5b6040516040806200189a833981016040528080519060200190919080519060200190919050506040805190810160405280600b81526020017f4445564e45547c436f696e0000000000000000000000000000000000000000008152506000908051906020019062000083929190620003b2565b506040805190810160405280600481526020017f565854320000000000000000000000000000000000000000000000000000000081525060019080519060200190620000d1929190620003b2565b506012600260006101000a81548160ff021916908360ff160217905550600260009054906101000a900460ff1660ff16600a0a6301406f400260038190555081600760006101000a81548173ffffffffffffffffffffffffffffffffffffffff021916908373ffffffffffffffffffffffffffffffffffffffff16021790555080600860006101000a81548173ffffffffffffffffffffffffffffffffffffffff021916908373ffffffffffffffffffffffffffffffffffffffff1602179055506002600354811515620001a157fe5b0460046000600760009054906101000a900473ffffffffffffffffffffffffffffffffffffffff1673ffffffffffffffffffffffffffffffffffffffff1673ffffffffffffffffffffffffffffffffffffffff1681526020019081526020016000208190555060026003548115156200021657fe5b0460046000600860009054906101000a900473ffffffffffffffffffffffffffffffffffffffff1673ffffffffffffffffffffffffffffffffffffffff1673ffffffffffffffffffffffffffffffffffffffff16815260200190815260200160002081905550600760009054906101000a900473ffffffffffffffffffffffffffffffffffffffff1673ffffffffffffffffffffffffffffffffffffffff16600073ffffffffffffffffffffffffffffffffffffffff167fddf252ad1be2c89b69c2b068fc378daa952ba7f163c4a11628f55a4df523b3ef6002600354811515620002fd57fe5b046040518082815260200191505060405180910390a3600860009054906101000a900473ffffffffffffffffffffffffffffffffffffffff1673ffffffffffffffffffffffffffffffffffffffff16600073ffffffffffffffffffffffffffffffffffffffff167fddf252ad1be2c89b69c2b068fc378daa952ba7f163c4a11628f55a4df523b3ef60026003548115156200039457fe5b046040518082815260200191505060405180910390a3505062000461565b828054600181600116156101000203166002900490600052602060002090601f016020900481019282601f10620003f557805160ff191683800117855562000426565b8280016001018555821562000426579182015b828111156200042557825182559160200191906001019062000408565b5b50905062000435919062000439565b5090565b6200045e91905b808211156200045a57600081600090555060010162000440565b5090565b90565b61142980620004716000396000f3006060604052600436106100e6576000357c0100000000000000000000000000000000000000000000000000000000900463ffffffff16806306fdde03146100f0578063095ea7b31461017e57806318160ddd146101d857806323b872dd14610201578063313ce5671461027a5780633c6bb436146102a95780633ccfd60b146102fe5780633eaaf86b1461031357806341c0e1b51461033c5780634727189d1461035157806370a082311461035b57806395d89b41146103a8578063a9059cbb14610436578063cae9ca5114610490578063ce266af81461052d578063dd62ed3e14610582575b6100ee6105ee565b005b34156100fb57600080fd5b6101036107b2565b6040518080602001828103825283818151815260200191508051906020019080838360005b83811015610143578082015181840152602081019050610128565b50505050905090810190601f1680156101705780820380516001836020036101000a031916815260200191505b509250505060405180910390f35b341561018957600080fd5b6101be600480803573ffffffffffffffffffffffffffffffffffffffff16906020019091908035906020019091905050610850565b604051808215151515815260200191505060405180910390f35b34156101e357600080fd5b6101eb610942565b6040518082815260200191505060405180910390f35b341561020c57600080fd5b610260600480803573ffffffffffffffffffffffffffffffffffffffff1690602001909190803573ffffffffffffffffffffffffffffffffffffffff1690602001909190803590602001909190505061098d565b604051808215151515815260200191505060405180910390f35b341561028557600080fd5b61028d610c38565b604051808260ff1660ff16815260200191505060405180910390f35b34156102b457600080fd5b6102bc610c4b565b604051808273ffffffffffffffffffffffffffffffffffffffff1673ffffffffffffffffffffffffffffffffffffffff16815260200191505060405180910390f35b341561030957600080fd5b610311610c71565b005b341561031e57600080fd5b610326610d3d565b6040518082815260200191505060405180910390f35b341561034757600080fd5b61034f610d43565b005b6103596105ee565b005b341561036657600080fd5b610392600480803573ffffffffffffffffffffffffffffffffffffffff16906020019091905050610e32565b6040518082815260200191505060405180910390f35b34156103b357600080fd5b6103bb610e7b565b6040518080602001828103825283818151815260200191508051906020019080838360005b838110156103fb5780820151818401526020810190506103e0565b50505050905090810190601f1680156104285780820380516001836020036101000a031916815260200191505b509250505060405180910390f35b341561044157600080fd5b610476600480803573ffffffffffffffffffffffffffffffffffffffff16906020019091908035906020019091905050610f19565b604051808215151515815260200191505060405180910390f35b341561049b57600080fd5b610513600480803573ffffffffffffffffffffffffffffffffffffffff1690602001909190803590602001909190803590602001908201803590602001908080601f016020809104026020016040519081016040528093929190818152602001838380828437820191505050505050919050506110ce565b604051808215151515815260200191505060405180910390f35b341561053857600080fd5b610540611318565b604051808273ffffffffffffffffffffffffffffffffffffffff1673ffffffffffffffffffffffffffffffffffffffff16815260200191505060405180910390f35b341561058d57600080fd5b6105d8600480803573ffffffffffffffffffffffffffffffffffffffff1690602001909190803573ffffffffffffffffffffffffffffffffffffffff1690602001909190505061133e565b6040518082815260200191505060405180910390f35b600080600080600354935060009250600060035411151561060e57600080fd5b670de0b6b3a76400003481151561062157fe5b0491506064820284101515610640576064820292508184039350610648565b839250600093505b600090505b828110156106b6576106a86001600460003373ffffffffffffffffffffffffffffffffffffffff1673ffffffffffffffffffffffffffffffffffffffff168152602001908152602001600020546113c590919063ffffffff16565b50808060010191505061064d565b6002348115156106c257fe5b0460066000600760009054906101000a900473ffffffffffffffffffffffffffffffffffffffff1673ffffffffffffffffffffffffffffffffffffffff1673ffffffffffffffffffffffffffffffffffffffff1681526020019081526020016000206000828254019250508190555060023481151561073d57fe5b0460066000600860009054906101000a900473ffffffffffffffffffffffffffffffffffffffff1673ffffffffffffffffffffffffffffffffffffffff1673ffffffffffffffffffffffffffffffffffffffff1681526020019081526020016000206000828254019250508190555050505050565b60008054600181600116156101000203166002900480601f0160208091040260200160405190810160405280929190818152602001828054600181600116156101000203166002900480156108485780601f1061081d57610100808354040283529160200191610848565b820191906000526020600020905b81548152906001019060200180831161082b57829003601f168201915b505050505081565b600081600560003373ffffffffffffffffffffffffffffffffffffffff1673ffffffffffffffffffffffffffffffffffffffff16815260200190815260200160002060008573ffffffffffffffffffffffffffffffffffffffff1673ffffffffffffffffffffffffffffffffffffffff168152602001908152602001600020819055508273ffffffffffffffffffffffffffffffffffffffff163373ffffffffffffffffffffffffffffffffffffffff167f8c5be1e5ebec7d5bd14f71427d1e84f3dd0314c0f7b2291e5b200ac8c7c3b925846040518082815260200191505060405180910390a36001905092915050565b6000600460008073ffffffffffffffffffffffffffffffffffffffff1673ffffffffffffffffffffffffffffffffffffffff1681526020019081526020016000205460035403905090565b60006109e182600460008773ffffffffffffffffffffffffffffffffffffffff1673ffffffffffffffffffffffffffffffffffffffff168152602001908152602001600020546113e190919063ffffffff16565b600460008673ffffffffffffffffffffffffffffffffffffffff1673ffffffffffffffffffffffffffffffffffffffff16815260200190815260200160002081905550610ab382600560008773ffffffffffffffffffffffffffffffffffffffff1673ffffffffffffffffffffffffffffffffffffffff16815260200190815260200160002060003373ffffffffffffffffffffffffffffffffffffffff1673ffffffffffffffffffffffffffffffffffffffff168152602001908152602001600020546113e190919063ffffffff16565b600560008673ffffffffffffffffffffffffffffffffffffffff1673ffffffffffffffffffffffffffffffffffffffff16815260200190815260200160002060003373ffffffffffffffffffffffffffffffffffffffff1673ffffffffffffffffffffffffffffffffffffffff16815260200190815260200160002081905550610b8582600460008673ffffffffffffffffffffffffffffffffffffffff1673ffffffffffffffffffffffffffffffffffffffff168152602001908152602001600020546113c590919063ffffffff16565b600460008573ffffffffffffffffffffffffffffffffffffffff1673ffffffffffffffffffffffffffffffffffffffff168152602001908152602001600020819055508273ffffffffffffffffffffffffffffffffffffffff168473ffffffffffffffffffffffffffffffffffffffff167fddf252ad1be2c89b69c2b068fc378daa952ba7f163c4a11628f55a4df523b3ef846040518082815260200191505060405180910390a3600190509392505050565b600260009054906101000a900460ff1681565b600760009054906101000a900473ffffffffffffffffffffffffffffffffffffffff1681565b6000600660003373ffffffffffffffffffffffffffffffffffffffff1673ffffffffffffffffffffffffffffffffffffffff1681526020019081526020016000205490506000600660003373ffffffffffffffffffffffffffffffffffffffff1673ffffffffffffffffffffffffffffffffffffffff168152602001908152602001600020819055503373ffffffffffffffffffffffffffffffffffffffff166108fc829081150290604051600060405180830381858888f193505050501515610d3a57600080fd5b50565b60035481565b600760009054906101000a900473ffffffffffffffffffffffffffffffffffffffff1673ffffffffffffffffffffffffffffffffffffffff163373ffffffffffffffffffffffffffffffffffffffff161480610dec5750600860009054906101000a900473ffffffffffffffffffffffffffffffffffffffff1673ffffffffffffffffffffffffffffffffffffffff163373ffffffffffffffffffffffffffffffffffffffff16145b1515610df757600080fd5b600760009054906101000a900473ffffffffffffffffffffffffffffffffffffffff1673ffffffffffffffffffffffffffffffffffffffff16ff5b6000600460008373ffffffffffffffffffffffffffffffffffffffff1673ffffffffffffffffffffffffffffffffffffffff168152602001908152602001600020549050919050565b60018054600181600116156101000203166002900480601f016020809104026020016040519081016040528092919081815260200182805460018160011615610100020316600290048015610f115780601f10610ee657610100808354040283529160200191610f11565b820191906000526020600020905b815481529060010190602001808311610ef457829003601f168201915b505050505081565b6000600260009054906101000a900460ff1660ff16600a0a82029150610f8782600460003373ffffffffffffffffffffffffffffffffffffffff1673ffffffffffffffffffffffffffffffffffffffff168152602001908152602001600020546113e190919063ffffffff16565b600460003373ffffffffffffffffffffffffffffffffffffffff1673ffffffffffffffffffffffffffffffffffffffff1681526020019081526020016000208190555061101c82600460008673ffffffffffffffffffffffffffffffffffffffff1673ffffffffffffffffffffffffffffffffffffffff168152602001908152602001600020546113c590919063ffffffff16565b600460008573ffffffffffffffffffffffffffffffffffffffff1673ffffffffffffffffffffffffffffffffffffffff168152602001908152602001600020819055508273ffffffffffffffffffffffffffffffffffffffff163373ffffffffffffffffffffffffffffffffffffffff167fddf252ad1be2c89b69c2b068fc378daa952ba7f163c4a11628f55a4df523b3ef846040518082815260200191505060405180910390a36001905092915050565b600082600560003373ffffffffffffffffffffffffffffffffffffffff1673ffffffffffffffffffffffffffffffffffffffff16815260200190815260200160002060008673ffffffffffffffffffffffffffffffffffffffff1673ffffffffffffffffffffffffffffffffffffffff168152602001908152602001600020819055508373ffffffffffffffffffffffffffffffffffffffff163373ffffffffffffffffffffffffffffffffffffffff167f8c5be1e5ebec7d5bd14f71427d1e84f3dd0314c0f7b2291e5b200ac8c7c3b925856040518082815260200191505060405180910390a38373ffffffffffffffffffffffffffffffffffffffff16638f4ffcb1338530866040518563ffffffff167c0100000000000000000000000000000000000000000000000000000000028152600401808573ffffffffffffffffffffffffffffffffffffffff1673ffffffffffffffffffffffffffffffffffffffff1681526020018481526020018373ffffffffffffffffffffffffffffffffffffffff1673ffffffffffffffffffffffffffffffffffffffff16815260200180602001828103825283818151815260200191508051906020019080838360005b838110156112ab578082015181840152602081019050611290565b50505050905090810190601f1680156112d85780820380516001836020036101000a031916815260200191505b5095505050505050600060405180830381600087803b15156112f957600080fd5b6102c65a03f1151561130a57600080fd5b505050600190509392505050565b600860009054906101000a900473ffffffffffffffffffffffffffffffffffffffff1681565b6000600560008473ffffffffffffffffffffffffffffffffffffffff1673ffffffffffffffffffffffffffffffffffffffff16815260200190815260200160002060008373ffffffffffffffffffffffffffffffffffffffff1673ffffffffffffffffffffffffffffffffffffffff16815260200190815260200160002054905092915050565b600081830190508281101515156113db57600080fd5b92915050565b60008282111515156113f257600080fd5b8183039050929150505600a165627a7a72305820b15d9673c068974fa63264981bac9f12b1d4af49672cd0a406fb08b6b95e3d8f0029",
  "source": "pragma solidity ^0.4.18;\n\n// Code borrowed and modified from https://theethereum.wiki/w/index.php/ERC20_Token_Standard\n// Use is just an example for Cisco Live DEVNET class and is provided as is. \n\nlibrary SafeMath {\n\n    function add(uint a, uint b) internal pure returns (uint c) {\n        c = a + b;\n        require(c >= a);\n    }\n\n    function sub(uint a, uint b) internal pure returns (uint c) {\n        require(b <= a);\n        c = a - b;\n    }\n\n    function mul(uint a, uint b) internal pure returns (uint c) {\n        c = a * b;\n        require(a == 0 || c / a == b);\n    }\n\n    function div(uint a, uint b) internal pure returns (uint c) {\n        require(b > 0);\n        c = a / b;\n    }\n}\n\n\n// ----------------------------------------------------------------------------\n\n// ERC Token Standard #20 Interface\n\n// https://github.com/ethereum/EIPs/blob/master/EIPS/eip-20-token-standard.md\n\n// ----------------------------------------------------------------------------\n\ncontract ERC20Interface {\n    function totalSupply() public constant returns (uint);\n    function balanceOf(address tokenOwner) public constant returns (uint balance);\n    function allowance(address tokenOwner, address spender) public constant returns (uint remaining);\n    function transfer(address to, uint tokens) public returns (bool success);\n    function approve(address spender, uint tokens) public returns (bool success);\n    function transferFrom(address from, address to, uint tokens) public returns (bool success);\n\n    event Transfer(address indexed from, address indexed to, uint tokens);\n    event Approval(address indexed tokenOwner, address indexed spender, uint tokens);\n\n}\n\ncontract ApproveAndCallFallBack {\n    function receiveApproval(address from, uint256 tokens, address token, bytes data) public;\n}\n\n\ncontract DEVNETCoin is ERC20Interface {\n    // add some function to uint to make it safe. \n    using SafeMath for uint;\n    // information about the coin.\n    string public name;\n    string public symbol;\n    uint8 public decimals;\n    uint public _totalSupply;\n    // people that own our coin.\n    mapping(address => uint256) balances;\n    // mapping of who can withdraw from who.\n    mapping(address => mapping(address => uint)) allowed;\n    mapping(address => uint) pendingWithdrawals;\n    address public val;\n    address public tom;\n\n    // Constructor when contract is created. \n    function DEVNETCoin(address _val, address _tom) public {\n      name = \"DEVNET|Coin\";\n      symbol = \"VXT2\";\n      decimals = 18;\n      _totalSupply = 21000000 * 10**uint(decimals);\n      val = _val;\n      tom = _tom;\n      balances[val] = _totalSupply / 2;\n      balances[tom] = _totalSupply / 2;\n      Transfer(address(0), val, _totalSupply / 2);\n      Transfer(address(0), tom, _totalSupply / 2);\n      // 10,500,000,000,000\n    }\n\n    // get the total supply \n    function totalSupply() public constant returns (uint) {\n      return _totalSupply - balances[address(0)];\n    }\n\n    // get the token balance for a token owner.\n    function balanceOf(address tokenOwner) public constant returns (uint balance) {\n      return balances[tokenOwner];\n    }\n\n    // send tokens from one account to another address. \n    function transfer(address to, uint tokens) public returns (bool success) {\n      // notice we use the safemath here \n      tokens = tokens * 10**uint(decimals); \n      balances[msg.sender] = balances[msg.sender].sub(tokens);\n      balances[to] = balances[to].add(tokens);\n      Transfer(msg.sender, to, tokens);\n      return true;\n    }\n\n    // approve someone to be able to transfer tokens from your account. \n    function approve(address spender, uint tokens) public returns (bool success) {\n      allowed[msg.sender][spender] = tokens;\n      Approval(msg.sender, spender, tokens); \n      return true;\n    }\n   \n    // called by the person claiming the tokens.   \n    function transferFrom(address from, address to, uint tokens) public returns (bool success) {\n      balances[from] = balances[from].sub(tokens);\n      allowed[from][msg.sender] = allowed[from][msg.sender].sub(tokens);\n      balances[to] = balances[to].add(tokens);\n      Transfer(from, to, tokens);\n      return true;\n    }\n\n    // returns the amount of tokens approved by the owners that can be transferred to \n    // the spender's account. \n    function allowance(address tokenOwner, address spender) public constant returns (uint remaining) {\n      return allowed[tokenOwner][spender];\n    }\n \n    function approveAndCall(address spender, uint tokens, bytes data) public returns (bool success) {\n      allowed[msg.sender][spender] = tokens;\n      Approval(msg.sender, spender, tokens);\n      ApproveAndCallFallBack(spender).receiveApproval(msg.sender, tokens, this, data);\n      return true;\n    } \n\n   \n    function buyVXT() public payable {\n\n        uint tokensRemaining = _totalSupply;\n        uint tokensBought = 0;\n        require(_totalSupply > 0);\n        uint etherReceived = msg.value/(10**18); \n        \n        if (tokensRemaining >= etherReceived * 100) {\n          tokensBought = etherReceived * 100;\n          tokensRemaining -= etherReceived;\n        } else {\n          tokensBought = tokensRemaining;\n          tokensRemaining = 0;\n        }\n        \n        for (uint i = 0; i < tokensBought; i++) {\n          balances[msg.sender].add(1);\n        }\n\n        pendingWithdrawals[val] += msg.value / 2;\n        pendingWithdrawals[tom] += msg.value / 2;\n        \n        // divide by 100 to get the ValTom coins. \n    } \n\n    // if people want to buy eth then we will send them tokens. \n    function () public payable {\n      buyVXT();\n    }\n\n    // give all them money to val or tom\n    function withdraw() public {\n      uint amount  = pendingWithdrawals[msg.sender];\n      pendingWithdrawals[msg.sender] = 0;\n      msg.sender.transfer(amount);\n    }\n\n    modifier valTomOnly() {\n      require(msg.sender == val || msg.sender == tom);\n      _;\n    }\n    \n    function kill() public valTomOnly {\n    \n      selfdestruct(val);\n    }\n}\n\n",
  "sourcePath": "/Users/vallard/Code/DEVNET-Coin/contracts/devnetcoin.sol",
  "compiler": {
    "name": "solc",
    "version": "0.4.18+commit.9cf6e910.Emscripten.clang"
  },
  "schemaVersion": "1.0.1",
  "updatedAt": "2018-01-26T18:46:54.199Z"
}