{
  "contractName": "DEVNETCoin",
  "abi": [
    {
      "constant": true,
      "inputs": [],
      "name": "name",
      "outputs": [
        {
          "name": "",
          "type": "string"
        }
      ],
      "payable": false,
      "stateMutability": "view",
      "type": "function"
    },
    {
      "constant": true,
      "inputs": [],
      "name": "decimals",
      "outputs": [
        {
          "name": "",
          "type": "uint8"
        }
      ],
      "payable": false,
      "stateMutability": "view",
      "type": "function"
    },
    {
      "constant": true,
      "inputs": [],
      "name": "val",
      "outputs": [
        {
          "name": "",
          "type": "address"
        }
      ],
      "payable": false,
      "stateMutability": "view",
      "type": "function"
    },
    {
      "constant": true,
      "inputs": [],
      "name": "_totalSupply",
      "outputs": [
        {
          "name": "",
          "type": "uint256"
        }
      ],
      "payable": false,
      "stateMutability": "view",
      "type": "function"
    },
    {
      "constant": true,
      "inputs": [],
      "name": "symbol",
      "outputs": [
        {
          "name": "",
          "type": "string"
        }
      ],
      "payable": false,
      "stateMutability": "view",
      "type": "function"
    },
    {
      "constant": true,
      "inputs": [],
      "name": "tom",
      "outputs": [
        {
          "name": "",
          "type": "address"
        }
      ],
      "payable": false,
      "stateMutability": "view",
      "type": "function"
    },
    {
      "constant": true,
      "inputs": [
        {
          "name": "",
          "type": "uint256"
        }
      ],
      "name": "accounts",
      "outputs": [
        {
          "name": "",
          "type": "address"
        }
      ],
      "payable": false,
      "stateMutability": "view",
      "type": "function"
    },
    {
      "inputs": [
        {
          "name": "_val",
          "type": "address"
        },
        {
          "name": "_tom",
          "type": "address"
        }
      ],
      "payable": false,
      "stateMutability": "nonpayable",
      "type": "constructor"
    },
    {
      "payable": true,
      "stateMutability": "payable",
      "type": "fallback"
    },
    {
      "anonymous": false,
      "inputs": [
        {
          "indexed": true,
          "name": "from",
          "type": "address"
        },
        {
          "indexed": true,
          "name": "to",
          "type": "address"
        },
        {
          "indexed": false,
          "name": "tokens",
          "type": "uint256"
        }
      ],
      "name": "Transfer",
      "type": "event"
    },
    {
      "anonymous": false,
      "inputs": [
        {
          "indexed": true,
          "name": "tokenOwner",
          "type": "address"
        },
        {
          "indexed": true,
          "name": "spender",
          "type": "address"
        },
        {
          "indexed": false,
          "name": "tokens",
          "type": "uint256"
        }
      ],
      "name": "Approval",
      "type": "event"
    },
    {
      "constant": true,
      "inputs": [],
      "name": "getAccountQuantity",
      "outputs": [
        {
          "name": "count",
          "type": "uint256"
        }
      ],
      "payable": false,
      "stateMutability": "view",
      "type": "function"
    },
    {
      "constant": true,
      "inputs": [],
      "name": "totalSupply",
      "outputs": [
        {
          "name": "",
          "type": "uint256"
        }
      ],
      "payable": false,
      "stateMutability": "view",
      "type": "function"
    },
    {
      "constant": true,
      "inputs": [
        {
          "name": "tokenOwner",
          "type": "address"
        }
      ],
      "name": "balanceOf",
      "outputs": [
        {
          "name": "balance",
          "type": "uint256"
        }
      ],
      "payable": false,
      "stateMutability": "view",
      "type": "function"
    },
    {
      "constant": false,
      "inputs": [
        {
          "name": "to",
          "type": "address"
        },
        {
          "name": "tokens",
          "type": "uint256"
        }
      ],
      "name": "transfer",
      "outputs": [
        {
          "name": "success",
          "type": "bool"
        }
      ],
      "payable": false,
      "stateMutability": "nonpayable",
      "type": "function"
    },
    {
      "constant": false,
      "inputs": [
        {
          "name": "spender",
          "type": "address"
        },
        {
          "name": "tokens",
          "type": "uint256"
        }
      ],
      "name": "approve",
      "outputs": [
        {
          "name": "success",
          "type": "bool"
        }
      ],
      "payable": false,
      "stateMutability": "nonpayable",
      "type": "function"
    },
    {
      "constant": false,
      "inputs": [
        {
          "name": "from",
          "type": "address"
        },
        {
          "name": "to",
          "type": "address"
        },
        {
          "name": "tokens",
          "type": "uint256"
        }
      ],
      "name": "transferFrom",
      "outputs": [
        {
          "name": "success",
          "type": "bool"
        }
      ],
      "payable": false,
      "stateMutability": "nonpayable",
      "type": "function"
    },
    {
      "constant": true,
      "inputs": [
        {
          "name": "tokenOwner",
          "type": "address"
        },
        {
          "name": "spender",
          "type": "address"
        }
      ],
      "name": "allowance",
      "outputs": [
        {
          "name": "remaining",
          "type": "uint256"
        }
      ],
      "payable": false,
      "stateMutability": "view",
      "type": "function"
    },
    {
      "constant": false,
      "inputs": [
        {
          "name": "spender",
          "type": "address"
        },
        {
          "name": "tokens",
          "type": "uint256"
        },
        {
          "name": "data",
          "type": "bytes"
        }
      ],
      "name": "approveAndCall",
      "outputs": [
        {
          "name": "success",
          "type": "bool"
        }
      ],
      "payable": false,
      "stateMutability": "nonpayable",
      "type": "function"
    },
    {
      "constant": false,
      "inputs": [],
      "name": "buyVXT",
      "outputs": [],
      "payable": true,
      "stateMutability": "payable",
      "type": "function"
    },
    {
      "constant": false,
      "inputs": [],
      "name": "withdraw",
      "outputs": [],
      "payable": false,
      "stateMutability": "nonpayable",
      "type": "function"
    },
    {
      "constant": false,
      "inputs": [],
      "name": "kill",
      "outputs": [],
      "payable": false,
      "stateMutability": "nonpayable",
      "type": "function"
    }
  ],
  "bytecode": "0x606060405234156200001057600080fd5b60405160408062001c6e833981016040528080519060200190919080519060200190919050506040805190810160405280600b81526020017f4445564e45547c436f696e0000000000000000000000000000000000000000008152506000908051906020019062000083929190620004de565b506040805190810160405280600381526020017f444556000000000000000000000000000000000000000000000000000000000081525060019080519060200190620000d1929190620004de565b506012600260006101000a81548160ff021916908360ff160217905550600260009054906101000a900460ff1660ff16600a0a6301312d000260038190555081600960006101000a81548173ffffffffffffffffffffffffffffffffffffffff021916908373ffffffffffffffffffffffffffffffffffffffff16021790555080600a60006101000a81548173ffffffffffffffffffffffffffffffffffffffff021916908373ffffffffffffffffffffffffffffffffffffffff1602179055506004600354811515620001a157fe5b0460066000600960009054906101000a900473ffffffffffffffffffffffffffffffffffffffff1673ffffffffffffffffffffffffffffffffffffffff1673ffffffffffffffffffffffffffffffffffffffff1681526020019081526020016000208190555060046003548115156200021657fe5b0460066000600a60009054906101000a900473ffffffffffffffffffffffffffffffffffffffff1673ffffffffffffffffffffffffffffffffffffffff1673ffffffffffffffffffffffffffffffffffffffff168152602001908152602001600020819055506005805480600101828162000292919062000565565b91600052602060002090016000600960009054906101000a900473ffffffffffffffffffffffffffffffffffffffff16909190916101000a81548173ffffffffffffffffffffffffffffffffffffffff021916908373ffffffffffffffffffffffffffffffffffffffff160217905550506005805480600101828162000319919062000565565b91600052602060002090016000600a60009054906101000a900473ffffffffffffffffffffffffffffffffffffffff16909190916101000a81548173ffffffffffffffffffffffffffffffffffffffff021916908373ffffffffffffffffffffffffffffffffffffffff160217905550506002600460006101000a81548161ffff021916908361ffff160217905550600960009054906101000a900473ffffffffffffffffffffffffffffffffffffffff1673ffffffffffffffffffffffffffffffffffffffff16600073ffffffffffffffffffffffffffffffffffffffff167fddf252ad1be2c89b69c2b068fc378daa952ba7f163c4a11628f55a4df523b3ef60046003548115156200042957fe5b046040518082815260200191505060405180910390a3600a60009054906101000a900473ffffffffffffffffffffffffffffffffffffffff1673ffffffffffffffffffffffffffffffffffffffff16600073ffffffffffffffffffffffffffffffffffffffff167fddf252ad1be2c89b69c2b068fc378daa952ba7f163c4a11628f55a4df523b3ef6004600354811515620004c057fe5b046040518082815260200191505060405180910390a35050620005bc565b828054600181600116156101000203166002900490600052602060002090601f016020900481019282601f106200052157805160ff191683800117855562000552565b8280016001018555821562000552579182015b828111156200055157825182559160200191906001019062000534565b5b50905062000561919062000594565b5090565b8154818355818115116200058f578183600052602060002091820191016200058e919062000594565b5b505050565b620005b991905b80821115620005b55760008160009055506001016200059b565b5090565b90565b6116a280620005cc6000396000f3006060604052600436106100fc576000357c0100000000000000000000000000000000000000000000000000000000900463ffffffff16806306fdde0314610106578063095ea7b31461019457806318160ddd146101ee57806323b872dd14610217578063313ce567146102905780633c6bb436146102bf5780633ccfd60b146103145780633eaaf86b1461032957806341c0e1b5146103525780634727189d1461036757806370a082311461037157806395d89b41146103be578063a9059cbb1461044c578063cae9ca51146104a6578063ce266af814610543578063dd62ed3e14610598578063e8ed1cdd14610604578063f2a40db81461062d575b610104610690565b005b341561011157600080fd5b61011961099d565b6040518080602001828103825283818151815260200191508051906020019080838360005b8381101561015957808201518184015260208101905061013e565b50505050905090810190601f1680156101865780820380516001836020036101000a031916815260200191505b509250505060405180910390f35b341561019f57600080fd5b6101d4600480803573ffffffffffffffffffffffffffffffffffffffff16906020019091908035906020019091905050610a3b565b604051808215151515815260200191505060405180910390f35b34156101f957600080fd5b610201610b2d565b6040518082815260200191505060405180910390f35b341561022257600080fd5b610276600480803573ffffffffffffffffffffffffffffffffffffffff1690602001909190803573ffffffffffffffffffffffffffffffffffffffff16906020019091908035906020019091905050610b78565b604051808215151515815260200191505060405180910390f35b341561029b57600080fd5b6102a3610e23565b604051808260ff1660ff16815260200191505060405180910390f35b34156102ca57600080fd5b6102d2610e36565b604051808273ffffffffffffffffffffffffffffffffffffffff1673ffffffffffffffffffffffffffffffffffffffff16815260200191505060405180910390f35b341561031f57600080fd5b610327610e5c565b005b341561033457600080fd5b61033c610f28565b6040518082815260200191505060405180910390f35b341561035d57600080fd5b610365610f2e565b005b61036f610690565b005b341561037c57600080fd5b6103a8600480803573ffffffffffffffffffffffffffffffffffffffff1690602001909190505061101d565b6040518082815260200191505060405180910390f35b34156103c957600080fd5b6103d1611066565b6040518080602001828103825283818151815260200191508051906020019080838360005b838110156104115780820151818401526020810190506103f6565b50505050905090810190601f16801561043e5780820380516001836020036101000a031916815260200191505b509250505060405180910390f35b341561045757600080fd5b61048c600480803573ffffffffffffffffffffffffffffffffffffffff16906020019091908035906020019091905050611104565b604051808215151515815260200191505060405180910390f35b34156104b157600080fd5b610529600480803573ffffffffffffffffffffffffffffffffffffffff1690602001909190803590602001909190803590602001908201803590602001908080601f0160208091040260200160405190810160405280939291908181526020018383808284378201915050505050509190505061129f565b604051808215151515815260200191505060405180910390f35b341561054e57600080fd5b6105566114e5565b604051808273ffffffffffffffffffffffffffffffffffffffff1673ffffffffffffffffffffffffffffffffffffffff16815260200191505060405180910390f35b34156105a357600080fd5b6105ee600480803573ffffffffffffffffffffffffffffffffffffffff1690602001909190803573ffffffffffffffffffffffffffffffffffffffff1690602001909190505061150b565b6040518082815260200191505060405180910390f35b341561060f57600080fd5b610617611592565b6040518082815260200191505060405180910390f35b341561063857600080fd5b61064e60048080359060200190919050506115ae565b604051808273ffffffffffffffffffffffffffffffffffffffff1673ffffffffffffffffffffffffffffffffffffffff16815260200191505060405180910390f35b600080600060035492506000915060006003541115156106af57600080fd5b34905060648102831015156106ce5760648102915080830392506106d6565b829150600092505b6000600660003373ffffffffffffffffffffffffffffffffffffffff1673ffffffffffffffffffffffffffffffffffffffff1681526020019081526020016000205414156107b757600580548060010182816107329190611625565b9160005260206000209001600033909190916101000a81548173ffffffffffffffffffffffffffffffffffffffff021916908373ffffffffffffffffffffffffffffffffffffffff160217905550506004600081819054906101000a900461ffff168092919060010191906101000a81548161ffff021916908361ffff160217905550505b81600660003373ffffffffffffffffffffffffffffffffffffffff1673ffffffffffffffffffffffffffffffffffffffff1681526020019081526020016000205401600660003373ffffffffffffffffffffffffffffffffffffffff1673ffffffffffffffffffffffffffffffffffffffff168152602001908152602001600020819055503373ffffffffffffffffffffffffffffffffffffffff16600073ffffffffffffffffffffffffffffffffffffffff167fddf252ad1be2c89b69c2b068fc378daa952ba7f163c4a11628f55a4df523b3ef846040518082815260200191505060405180910390a36002348115156108ae57fe5b0460086000600960009054906101000a900473ffffffffffffffffffffffffffffffffffffffff1673ffffffffffffffffffffffffffffffffffffffff1673ffffffffffffffffffffffffffffffffffffffff1681526020019081526020016000206000828254019250508190555060023481151561092957fe5b0460086000600a60009054906101000a900473ffffffffffffffffffffffffffffffffffffffff1673ffffffffffffffffffffffffffffffffffffffff1673ffffffffffffffffffffffffffffffffffffffff16815260200190815260200160002060008282540192505081905550505050565b60008054600181600116156101000203166002900480601f016020809104026020016040519081016040528092919081815260200182805460018160011615610100020316600290048015610a335780601f10610a0857610100808354040283529160200191610a33565b820191906000526020600020905b815481529060010190602001808311610a1657829003601f168201915b505050505081565b600081600760003373ffffffffffffffffffffffffffffffffffffffff1673ffffffffffffffffffffffffffffffffffffffff16815260200190815260200160002060008573ffffffffffffffffffffffffffffffffffffffff1673ffffffffffffffffffffffffffffffffffffffff168152602001908152602001600020819055508273ffffffffffffffffffffffffffffffffffffffff163373ffffffffffffffffffffffffffffffffffffffff167f8c5be1e5ebec7d5bd14f71427d1e84f3dd0314c0f7b2291e5b200ac8c7c3b925846040518082815260200191505060405180910390a36001905092915050565b6000600660008073ffffffffffffffffffffffffffffffffffffffff1673ffffffffffffffffffffffffffffffffffffffff1681526020019081526020016000205460035403905090565b6000610bcc82600660008773ffffffffffffffffffffffffffffffffffffffff1673ffffffffffffffffffffffffffffffffffffffff168152602001908152602001600020546115ed90919063ffffffff16565b600660008673ffffffffffffffffffffffffffffffffffffffff1673ffffffffffffffffffffffffffffffffffffffff16815260200190815260200160002081905550610c9e82600760008773ffffffffffffffffffffffffffffffffffffffff1673ffffffffffffffffffffffffffffffffffffffff16815260200190815260200160002060003373ffffffffffffffffffffffffffffffffffffffff1673ffffffffffffffffffffffffffffffffffffffff168152602001908152602001600020546115ed90919063ffffffff16565b600760008673ffffffffffffffffffffffffffffffffffffffff1673ffffffffffffffffffffffffffffffffffffffff16815260200190815260200160002060003373ffffffffffffffffffffffffffffffffffffffff1673ffffffffffffffffffffffffffffffffffffffff16815260200190815260200160002081905550610d7082600660008673ffffffffffffffffffffffffffffffffffffffff1673ffffffffffffffffffffffffffffffffffffffff1681526020019081526020016000205461160990919063ffffffff16565b600660008573ffffffffffffffffffffffffffffffffffffffff1673ffffffffffffffffffffffffffffffffffffffff168152602001908152602001600020819055508273ffffffffffffffffffffffffffffffffffffffff168473ffffffffffffffffffffffffffffffffffffffff167fddf252ad1be2c89b69c2b068fc378daa952ba7f163c4a11628f55a4df523b3ef846040518082815260200191505060405180910390a3600190509392505050565b600260009054906101000a900460ff1681565b600960009054906101000a900473ffffffffffffffffffffffffffffffffffffffff1681565b6000600860003373ffffffffffffffffffffffffffffffffffffffff1673ffffffffffffffffffffffffffffffffffffffff1681526020019081526020016000205490506000600860003373ffffffffffffffffffffffffffffffffffffffff1673ffffffffffffffffffffffffffffffffffffffff168152602001908152602001600020819055503373ffffffffffffffffffffffffffffffffffffffff166108fc829081150290604051600060405180830381858888f193505050501515610f2557600080fd5b50565b60035481565b600960009054906101000a900473ffffffffffffffffffffffffffffffffffffffff1673ffffffffffffffffffffffffffffffffffffffff163373ffffffffffffffffffffffffffffffffffffffff161480610fd75750600a60009054906101000a900473ffffffffffffffffffffffffffffffffffffffff1673ffffffffffffffffffffffffffffffffffffffff163373ffffffffffffffffffffffffffffffffffffffff16145b1515610fe257600080fd5b600a60009054906101000a900473ffffffffffffffffffffffffffffffffffffffff1673ffffffffffffffffffffffffffffffffffffffff16ff5b6000600660008373ffffffffffffffffffffffffffffffffffffffff1673ffffffffffffffffffffffffffffffffffffffff168152602001908152602001600020549050919050565b60018054600181600116156101000203166002900480601f0160208091040260200160405190810160405280929190818152602001828054600181600116156101000203166002900480156110fc5780601f106110d1576101008083540402835291602001916110fc565b820191906000526020600020905b8154815290600101906020018083116110df57829003601f168201915b505050505081565b600061115882600660003373ffffffffffffffffffffffffffffffffffffffff1673ffffffffffffffffffffffffffffffffffffffff168152602001908152602001600020546115ed90919063ffffffff16565b600660003373ffffffffffffffffffffffffffffffffffffffff1673ffffffffffffffffffffffffffffffffffffffff168152602001908152602001600020819055506111ed82600660008673ffffffffffffffffffffffffffffffffffffffff1673ffffffffffffffffffffffffffffffffffffffff1681526020019081526020016000205461160990919063ffffffff16565b600660008573ffffffffffffffffffffffffffffffffffffffff1673ffffffffffffffffffffffffffffffffffffffff168152602001908152602001600020819055508273ffffffffffffffffffffffffffffffffffffffff163373ffffffffffffffffffffffffffffffffffffffff167fddf252ad1be2c89b69c2b068fc378daa952ba7f163c4a11628f55a4df523b3ef846040518082815260200191505060405180910390a36001905092915050565b600082600760003373ffffffffffffffffffffffffffffffffffffffff1673ffffffffffffffffffffffffffffffffffffffff16815260200190815260200160002060008673ffffffffffffffffffffffffffffffffffffffff1673ffffffffffffffffffffffffffffffffffffffff168152602001908152602001600020819055508373ffffffffffffffffffffffffffffffffffffffff163373ffffffffffffffffffffffffffffffffffffffff167f8c5be1e5ebec7d5bd14f71427d1e84f3dd0314c0f7b2291e5b200ac8c7c3b925856040518082815260200191505060405180910390a38373ffffffffffffffffffffffffffffffffffffffff16638f4ffcb1338530866040518563ffffffff167c0100000000000000000000000000000000000000000000000000000000028152600401808573ffffffffffffffffffffffffffffffffffffffff1673ffffffffffffffffffffffffffffffffffffffff1681526020018481526020018373ffffffffffffffffffffffffffffffffffffffff1673ffffffffffffffffffffffffffffffffffffffff16815260200180602001828103825283818151815260200191508051906020019080838360005b8381101561147c578082015181840152602081019050611461565b50505050905090810190601f1680156114a95780820380516001836020036101000a031916815260200191505b5095505050505050600060405180830381600087803b15156114ca57600080fd5b5af115156114d757600080fd5b505050600190509392505050565b600a60009054906101000a900473ffffffffffffffffffffffffffffffffffffffff1681565b6000600760008473ffffffffffffffffffffffffffffffffffffffff1673ffffffffffffffffffffffffffffffffffffffff16815260200190815260200160002060008373ffffffffffffffffffffffffffffffffffffffff1673ffffffffffffffffffffffffffffffffffffffff16815260200190815260200160002054905092915050565b6000600460009054906101000a900461ffff1661ffff16905090565b6005818154811015156115bd57fe5b90600052602060002090016000915054906101000a900473ffffffffffffffffffffffffffffffffffffffff1681565b60008282111515156115fe57600080fd5b818303905092915050565b6000818301905082811015151561161f57600080fd5b92915050565b81548183558181151161164c5781836000526020600020918201910161164b9190611651565b5b505050565b61167391905b8082111561166f576000816000905550600101611657565b5090565b905600a165627a7a72305820ac096b073329369e0bb4b5e9f71c2f2d7332acd39500991ea5f4b36539664e870029",
  "source": "pragma solidity ^0.4.18;\n\n// Code borrowed and modified from https://theethereum.wiki/w/index.php/ERC20_Token_Standard\n// Use is just an example for Cisco Live DEVNET class and is provided as is.\n\nlibrary SafeMath {\n\n    function add(uint a, uint b) internal pure returns (uint c) {\n        c = a + b;\n        require(c >= a);\n    }\n\n    function sub(uint a, uint b) internal pure returns (uint c) {\n        require(b <= a);\n        c = a - b;\n    }\n\n    function mul(uint a, uint b) internal pure returns (uint c) {\n        c = a * b;\n        require(a == 0 || c / a == b);\n    }\n\n    function div(uint a, uint b) internal pure returns (uint c) {\n        require(b > 0);\n        c = a / b;\n    }\n}\n\n\n// ----------------------------------------------------------------------------\n\n// ERC Token Standard #20 Interface\n\n// https://github.com/ethereum/EIPs/blob/master/EIPS/eip-20-token-standard.md\n\n// ----------------------------------------------------------------------------\n\ncontract ERC20Interface {\n    function totalSupply() public constant returns (uint);\n    function balanceOf(address tokenOwner) public constant returns (uint balance);\n    function allowance(address tokenOwner, address spender) public constant returns (uint remaining);\n    function transfer(address to, uint tokens) public returns (bool success);\n    function approve(address spender, uint tokens) public returns (bool success);\n    function transferFrom(address from, address to, uint tokens) public returns (bool success);\n\n    event Transfer(address indexed from, address indexed to, uint tokens);\n    event Approval(address indexed tokenOwner, address indexed spender, uint tokens);\n\n}\n\ncontract ApproveAndCallFallBack {\n    function receiveApproval(address from, uint256 tokens, address token, bytes data) public;\n}\n\n\ncontract DEVNETCoin is ERC20Interface {\n    // add some function to uint to make it safe.\n    using SafeMath for uint;\n    // information about the coin.\n    string public name;\n    string public symbol;\n    uint8 public decimals;\n    uint public _totalSupply;\n    // people that own our coin.\n    uint16 userCount;\n    address[] public accounts;\n    mapping(address => uint256) balances;\n    // mapping of who can withdraw from who.\n    mapping(address => mapping(address => uint)) allowed;\n    mapping(address => uint) pendingWithdrawals;\n    address public val;\n    address public tom;\n\n    // Constructor when contract is created.\n    function DEVNETCoin(address _val, address _tom) public {\n      name = \"DEVNET|Coin\";\n      symbol = \"DEV\";\n      decimals = 18;\n      _totalSupply = 20000000 * 10**uint(decimals);\n      val = _val;\n      tom = _tom;\n      balances[val] = _totalSupply / 4;\n      balances[tom] = _totalSupply / 4;\n      accounts.push(val);\n      accounts.push(tom);\n      userCount = 2;\n      emit Transfer(address(0), val, _totalSupply / 4);\n      emit Transfer(address(0), tom, _totalSupply / 4);\n      // 10,500,000,000,000\n    }\n\n    // get item count\n    function getAccountQuantity() public constant returns (uint count) {\n      return userCount;\n    }\n\n    // get the total supply\n    function totalSupply() public constant returns (uint) {\n      return _totalSupply - balances[address(0)];\n    }\n\n    // get the token balance for a token owner.\n    function balanceOf(address tokenOwner) public constant returns (uint balance) {\n      return balances[tokenOwner];\n    }\n\n    // send tokens from one account to another address.\n    function transfer(address to, uint tokens) public returns (bool success) {\n      // notice we use the safemath here\n      //tokens = tokens;\n      balances[msg.sender] = balances[msg.sender].sub(tokens);\n      balances[to] = balances[to].add(tokens);\n      emit Transfer(msg.sender, to, tokens);\n      return true;\n    }\n\n    // approve someone to be able to transfer tokens from your account.\n    function approve(address spender, uint tokens) public returns (bool success) {\n      allowed[msg.sender][spender] = tokens;\n      emit Approval(msg.sender, spender, tokens);\n      return true;\n    }\n\n    // called by the person claiming the tokens.\n    function transferFrom(address from, address to, uint tokens) public returns (bool success) {\n      balances[from] = balances[from].sub(tokens);\n      allowed[from][msg.sender] = allowed[from][msg.sender].sub(tokens);\n      balances[to] = balances[to].add(tokens);\n      emit Transfer(from, to, tokens);\n      return true;\n    }\n\n    // returns the amount of tokens approved by the owners that can be transferred to\n    // the spender's account.\n    function allowance(address tokenOwner, address spender) public constant returns (uint remaining) {\n      return allowed[tokenOwner][spender];\n    }\n\n    function approveAndCall(address spender, uint tokens, bytes data) public returns (bool success) {\n      allowed[msg.sender][spender] = tokens;\n      emit Approval(msg.sender, spender, tokens);\n      ApproveAndCallFallBack(spender).receiveApproval(msg.sender, tokens, this, data);\n      return true;\n    }\n\n\n    function buyVXT() public payable {\n\n        uint tokensRemaining = _totalSupply;\n        uint tokensBought = 0;\n        require(_totalSupply > 0);\n        uint etherReceived = msg.value;\n\n        if (tokensRemaining >= etherReceived * 100) {\n          tokensBought = etherReceived * 100;\n          tokensRemaining -= etherReceived;\n        } else {\n          tokensBought = tokensRemaining;\n          tokensRemaining = 0;\n        }\n        // make sure sender doesnt already exist.  If they don't, add new.\n\n        if (balances[msg.sender] == 0) {\n          accounts.push(msg.sender);\n          userCount++;\n        }\n\n        balances[msg.sender] = balances[msg.sender] + tokensBought;\n\n\n        emit Transfer(address(0), msg.sender, tokensBought);\n\n        pendingWithdrawals[val] += msg.value / 2;\n        pendingWithdrawals[tom] += msg.value / 2;\n    }\n\n    // if people want to buy eth then we will send them tokens.\n    function () public payable {\n      buyVXT();\n    }\n\n    // give all them money to val or tom\n    function withdraw() public {\n      uint amount  = pendingWithdrawals[msg.sender];\n      pendingWithdrawals[msg.sender] = 0;\n      msg.sender.transfer(amount);\n    }\n\n    modifier valTomOnly() {\n      require(msg.sender == val || msg.sender == tom);\n      _;\n    }\n\n    function kill() public valTomOnly {\n      selfdestruct(tom);\n    }\n}\n",
  "sourcePath": "/Users/thodavie/Documents/Development/DEVNET-Coin/contracts/devnetcoin.sol",
  "compiler": {
    "name": "solc",
    "version": "0.4.21+commit.dfe3193c.Emscripten.clang"
  },
  "schemaVersion": "2.0.0",
  "updatedAt": "2018-04-05T14:25:33.188Z"
}